:020000040000FA
:100000000C945D000C9485000C9485000C94850084
:100010000C9485000C9485000C9485000C9485004C
:100020000C9485000C9485000C9485000C9485003C
:100030000C9485000C9485000C9485000C9485002C
:100040000C9450050C9485000C941E050C94F80437
:100050000C9485000C9485000C9485000C9485000C
:100060000C9485000C9485000000000024002700FB
:100070002A0000000000250028002B0004040404CE
:100080000404040402020202020203030303030342
:10009000010204081020408001020408102001021F
:1000A00004081020000000080002010000030407FB
:1000B00000000000000000009A0511241FBECFEFD1
:1000C000D8E0DEBFCDBF14E0A0E0B1E0E8E9F3E1A5
:1000D00002C005900D92AE3BB107D9F725E0AEEB1B
:1000E000B4E001C01D92A83AB207E1F710E0CDE5F7
:1000F000D0E004C02197FE010E94C409CC35D1078D
:10010000C9F70E944A060C94CA090C9400002FB744
:10011000F8946091C3047091C4048091C5049091D7
:10012000C6042FBF0895AF92BF92CF92DF92EF9295
:10013000FF920F931F93CF93DF936C017B018B0191
:10014000040F151FEB015E01AE18BF08C017D107E1
:1001500059F06991D601ED91FC910190F081E02D6B
:10016000C6010995892B79F7C501DF91CF911F91C0
:100170000F91FF90EF90DF90CF90BF90AF900895D8
:10018000FC01538D448D252F30E0842F90E0821B9D
:10019000930B541710F0CF96089501970895FC0122
:1001A000918D828D981761F0A28DAE0FBF2FB11D7A
:1001B0005D968C91928D9F5F9F73928F90E00895D2
:1001C0008FEF9FEF0895FC01918D828D981731F08C
:1001D000828DE80FF11D858D90E008958FEF9FEFE0
:1001E0000895FC01918D228D892F90E0805C9F4FB6
:1001F000821B91098F73992708958BEC94E00E94DC
:10020000F10021E0892B09F420E0822F089580E09D
:1002100090E0892B29F00E94FD0081110C940000D0
:100220000895FC01A48DA80FB92FB11DA35ABF4F8B
:100230002C91848D90E001968F739927848FA689E5
:10024000B7892C93A089B1898C91837080648C9339
:10025000938D848D981306C00288F389E02D8081E8
:100260008F7D80830895EF92FF920F931F93CF931A
:10027000DF93EC0181E0888F9B8D8C8D98131AC0E1
:10028000E889F989808185FF15C09FB7F894EE89C8
:10029000FF896083E889F989808183708064808325
:1002A0009FBF81E090E0DF91CF911F910F91FF9070
:1002B000EF900895F62E0B8D10E00F5F1F4F0F7318
:1002C0001127E02E8C8D8E110CC00FB607FCFACFD3
:1002D000E889F989808185FFF5CFCE010E9411015F
:1002E000F1CFEB8DEC0FFD2FF11DE35AFF4FF082A4
:1002F0009FB7F8940B8FEA89FB8980818062CFCF0A
:10030000CF93DF93EC01888D8823B9F0AA89BB894C
:10031000E889F9898C9185FD03C0808186FD0DC037
:100320000FB607FCF7CF8C9185FFF2CF808185FF58
:10033000EDCFCE010E941101E9CFDF91CF91089559
:1003400080E480937C0080917A00806480937A00BE
:1003500080917A0086FDFCCF8091780060917900D1
:10036000762F682F072E000C880B990B0E94A90886
:1003700020E030E048EC5DE30E940D090E94710826
:10038000CB010895CF93DF93EC01EB81FC810995BC
:100390007E836D83DF91CF910895CF93DF93EC013E
:1003A000EB81FC8109952D813E81CB01821B930B52
:1003B000DF91CF910895CF92DF92EF92FF920F934A
:1003C0001F93CF93DF9300D000D000D01F92CDB702
:1003D000DEB729833A834B835C836D837E838F836F
:1003E00088E6C82E85E0D82ED6011D96ED91FC91A9
:1003F00080E791E00995D6011D96ED91FC918EE282
:1004000091E00995D6011D96ED91FC91C7010995E2
:10041000D6011D96ED91FC9188E391E00995F601D6
:10042000E784F0880188F289E02D0995CB01F70176
:100430000995D6011D96ED91FC9183E491E0099513
:10044000F601E784F088CE0101960E94CD01F70104
:100450000995D6011D96ED91FC9189E591E00995EC
:10046000D6011D96ED91FC91C801099527960FB60E
:10047000F894DEBF0FBECDBFDF91CF911F910F91DA
:10048000FF90EF90DF90CF900895FC010190002045
:10049000E9F73197AF01481B590BBC018BEC94E095
:1004A0000C9493008F929F92AF92BF920F931F93E1
:1004B000CF93DF93CDB7DEB7A1970FB6F894DEBF29
:1004C0000FBECDBF19A2423008F44AE08E010F5D85
:1004D0001F4F842E912CB12CA12CA50194010E94B8
:1004E000A209E62FB901CA01EA30F4F4E05DD801AF
:1004F000EE938D01232B242B252B79F790E080E0C0
:10050000109719F0CD010E944502A1960FB6F894FC
:10051000DEBF0FBECDBFDF91CF911F910F91BF9076
:10052000AF909F908F900895E95CE1CFCF92DF92DA
:10053000EF92FF92CF93DF936B017C016DE28BEC26
:1005400094E00E943301EC0166277727CB016C19F8
:100550007D098E099F094AE00E9452028C0F9D1F5F
:10056000DF91CF91FF90EF90DF90CF900895CF93E0
:10057000DF93D0E0C0E0009719F00E944502EC0143
:100580008EE691E00E9445028C0F9D1FDF91CF9176
:1005900008950C94B702009711F00C94450290E076
:1005A00080E00895EF92FF920F931F93CF93DF9314
:1005B0007C01EC0110E000E0F701828193810817D3
:1005C00019072CF580E791E00E94B70281E791E0DE
:1005D0000E94B70285E891E00E94CB0289859A8546
:1005E0000E94CB0280EA91E00E94CB02F701808159
:1005F00091810E94CB0284EB91E00E94B70289EBCB
:1006000091E00E94B7020F5F1F4F2A96D5CFDF916E
:10061000CF911F910F91FF90EF900895BC01990F1A
:10062000880B990B97FF06C00E9496028EE691E018
:100630000C9445024AE00E945202F8CFBC01990F87
:10064000880B990B97FD0C9496024AE00C94520289
:10065000CF93DF934AE00E945202EC018EE691E0D4
:100660000E9445028C0F9D1FDF91CF910895EF925C
:10067000FF920F931F93CF93DF938C01EB017A01CD
:1006800080E791E00E94B7028DEC91E00E94B702F2
:1006900088E391E00E94CB020E9487000E94280319
:1006A00088ED91E00E94CB02C8010E94CB028DEE42
:1006B00091E00E94CB028E01EC0EFD1EE016F106C9
:1006C00041F0F80161918F018BEC94E00E943301BD
:1006D000F5CF8EE691E00E9445028881803349F093
:1006E000813399F0DF91CF911F910F91FF90EF909F
:1006F000089580EF91E00E94B70210920D011092D0
:100700000C0181E080930801EDCF84E192E00E942A
:10071000B7020E94870010920D0110920C01709395
:1007200005016093040110920801DCCF8F929F9223
:10073000AF92BF92CF92DF92EF92FF920F931F93EF
:10074000CF93DF938C01EC01D12CC12CF12CE12C47
:10075000F80182819381C816D9060CF07CC0888587
:10076000882349F090E080E0E80EF91EFFEFCF1AF1
:10077000DF0A2A96EDCF0E9487008C809D80092C8D
:10078000000CAA08BB08AB01BC01481959096A0949
:100790007B098E819F81092E000CAA0BBB0B481789
:1007A00059076A077B07F0F280E791E00E94B702E1
:1007B00086E392E00E94B70288E391E00E94CB02B8
:1007C0000E9487000E94280382E492E00E94CB02EC
:1007D0000E9487008C809D80092C000CAA08BB0811
:1007E000681979098A099B090E94280385E792E024
:1007F0000E94CB0289859A850E94CB0281E992E012
:100800000E94CB028B85882311F18C859D850E94E7
:100810001E038EEE92E00E94CB02F801808191814E
:100820000E94CB0285EB91E00E94B7028B8581117B
:1008300003C0EC85FD85099585E992E00E94B70229
:100840000E9487007D836C8381E090E08DCFEC85F2
:10085000FD850995DCCFEF2809F4BDC080E791E064
:100860000E94B70288EA92E00E94B70283EB92E00E
:100870000E94B70288ED92E00E94CB02F8018281CB
:1008800093810E941E0384EE92E00E94CB02F80145
:10089000808191810E94B70280E791E00E94B702B7
:1008A00080E093E00E94B7028AE093E00E94B702E2
:1008B000F801E080F180D0E0C0E010E000E080913D
:1008C000710590917205081719070CF070C0E0913E
:1008D0007305F0917405EC0FFD1F8185928580579B
:1008E000914009F460C027853089D701F90190E073
:1008F00080E05D91552309F453C04191442309F4EC
:100900004FC001965417A9F30197F701E80FF91F9B
:10091000820F931F2081FC018081281344C0E09145
:100920007505F091760580E791E00995E0917505F0
:10093000F09176058DE193E00995E0917505F091D0
:10094000760586E293E00995E0917505F0917605CC
:1009500080E393E00995A0917305B0917405AC0F05
:10096000BD1FE0917505F09176051F968D919C91C4
:100970000995A0917305B0917405AC0FBD1F1D962C
:100980004D915C911E9719966D917C911A97E0910B
:100990006805F091690551968D919C91099503C068
:1009A000009709F0B1CF0F5F1F4F639688CF80E7A4
:1009B00091E00E94B7028EE493E0DF91CF911F9106
:1009C0000F91FF90EF90DF90CF90BF90AF909F90EE
:1009D0008F900C94B702DF91CF911F910F91FF90F0
:1009E000EF90DF90CF90BF90AF909F908F90089541
:1009F0001F920F920FB60F9211242F933F934F9394
:100A00005F936F937F938F939F93AF93BF93EF9376
:100A1000FF938BEC94E00E941101FF91EF91BF9145
:100A2000AF919F918F917F916F915F914F913F9186
:100A30002F910F900FBE0F901F9018951F920F923D
:100A40000FB60F9211242F938F939F93EF93FF93E1
:100A5000E091DB04F091DC048081E091E104F0910D
:100A6000E20482FD1BC090818091E4048F5F8F734C
:100A70002091E504821741F0E091E404F0E0E553B1
:100A8000FB4F958F8093E404FF91EF919F918F919D
:100A90002F910F900FBE0F901F9018958081F4CF6B
:100AA0001F920F920FB60F9211242F933F938F93A3
:100AB0009F93AF93BF938091C3049091C404A0917E
:100AC000C504B091C6043091C20423E0230F2D3732
:100AD00058F50196A11DB11D2093C2048093C30453
:100AE0009093C404A093C504B093C6048091BE043F
:100AF0009091BF04A091C004B091C1040196A11DC2
:100B0000B11D8093BE049093BF04A093C004B09322
:100B1000C104BF91AF919F918F913F912F910F9001
:100B20000FBE0F901F90189526E8230F0296A11D67
:100B3000B11DD2CFDF92EF92FF920F931F93CF930D
:100B4000DF9300D000D000D01F92CDB7DEB7EBEC22
:100B5000F4E01382128288EE93E0A0E0B0E0848398
:100B60009583A683B78380E291E09183808385ECAF
:100B700090E09587848784EC90E09787868780EC67
:100B800090E0918B808B81EC90E0938B828B82EC58
:100B900090E0958B848B86EC90E0978B868B118E02
:100BA000128E138E148EE1EAF5E0DD24D394D08208
:100BB00088E99AE39283818387E8E82E80E0F82E23
:100BC000F482E382CF010E94C2010EE815E0F80131
:100BD000D08280E49FE192838183F482E382C80122
:100BE0000E94C2018BE693E0F801928B818B80E337
:100BF00092E0908B878786E793E09087878388E7EA
:100C000093E0928781871682158281E090E0948735
:100C100083879687858723E1ABE7B5E001900D9246
:100C20002A95E1F727E0E1EAF5E0DE01119601906F
:100C30000D922A95E1F727E0FE013196AAE6B5E08C
:100C400001900D922A95E1F7E8E6F5E02BE735E013
:100C5000348723879287818789EC92E096878587FE
:100C60008EE093E0908B8787F28AE18A80EA91E0B8
:100C700090931B0180931A0127960FB6F894DEBF5C
:100C80000FBECDBFDF91CF911F910F91FF90EF90DD
:100C9000DF900895789484B5826084BD84B58160C6
:100CA00084BD85B5826085BD85B5816085BD809137
:100CB0006E00816080936E001092810080918100AF
:100CC00082608093810080918100816080938100A7
:100CD000809180008160809380008091B100846069
:100CE0008093B1008091B00081608093B0008091CA
:100CF0007A00846080937A0080917A008260809389
:100D00007A0080917A00816080937A0080917A00E5
:100D1000806880937A001092C100E091DB04F0912A
:100D2000DC0482E08083E091D704F091D804108243
:100D3000E091D904F091DA0480E180831092E30419
:100D4000E091DF04F091E00486E08083E091DD042F
:100D5000F091DE04808180618083E091DD04F09178
:100D6000DE04808188608083E091DD04F091DE0400
:100D7000808180688083E091DD04F091DE048081D1
:100D80008F7D8083EEE9F0E02491EAE8F0E0849141
:100D90008823C1F090E0880F991FFC01E859FF4FAC
:100DA000C591D491FC01EE58FF4FA591B4919FB726
:100DB000F8948881E22FE0958E2388838C91E82334
:100DC000EC939FBF4DE950E0FA01649189E890E00F
:100DD000FC012491222399F030E0220F331FF90106
:100DE000E859FF4FA591B491F901EE58FF4F2591B5
:100DF00034912FB7F8943C91632B6C932FBFE1EBA8
:100E0000F0E02491FA014491FC0194919923D9F0E6
:100E1000222359F0233009F456C008F049C021308C
:100E200009F457C0223009F458C0E92FF0E0EE0F62
:100E3000FF1FEE58FF4FA591B4918FB7F8949C9186
:100E4000492B4C938FBF80E791E00E94B7028AE75D
:100E500093E00E94B70285E893E00E94B7028DE913
:100E600093E00E94B70283EC93E00E94B70287E30D
:100E700093E09093690580936805D0E0C0E010E0AE
:100E800000E0DD24D39480917105909172050817DC
:100E9000190784F580917305909174058C0F9D1F3F
:100EA000FC01D0820E94C2010F5F1F4F6396EBCFFF
:100EB0002730B1F02830D1F0243009F0B6CF80913E
:100EC00080008F7D03C0809180008F7780938000A9
:100ED000ACCF84B58F7784BDA8CF84B58F7DFBCF91
:100EE0008091B0008F778093B0009FCF8091B00049
:100EF0008F7DF9CF8AED93E00E94B7028091C704FD
:100F00009091C804181619060CF056C080E791E0BD
:100F10000E94B70281EF93E00E94B70285E094E05F
:100F20000E94B70288E294E00E94B70230E0A32E4C
:100F300030E0B32E80916A05882309F450C08AE618
:100F400095E00E94CD0120916B0530916C0528172A
:100F500039070CF044C097E4E92E94E0F92E03E53C
:100F600014E020916A0530916B0540916C05509119
:100F70006D0560916E0570916F05809170050E94FE
:100F8000DB018AE695E00E94C20180E791E00E94C1
:100F9000B70280E694E00E94B7028DE694E00E94DA
:100FA000B70287E894E00E94B7028091C90490914B
:100FB000CA040E94D202BECF9C012F5F3F4F3093E4
:100FC000C8042093C704880F991FFC01E753FB4F07
:100FD00080E091E0918380830E94D202A7CF80E0DD
:100FE00091E00E9496038EE091E00E949603D0E08B
:100FF000C0E0D12CC12C8091710590917205C8166A
:10100000D9060CF062C000917305109174050C0FA5
:101010001D1FF801878190858057914009F450C0C9
:10102000F8018081882309F44BC0C8010E94CD01DA
:10103000F80121813281281739070CF041C0E09175
:101040007305F0917405EC0FFD1F8EE9E82E84E026
:10105000F82E05EA14E020813181428153816481B8
:10106000758186810E94DB01A0917305B0917405A2
:10107000AC0FBD1FE0917505F09176051F968D911F
:101080009C910995A0917305B0917405AC0FBD1F9B
:101090001B964D915C911C9717966D917C911897BA
:1010A000E0916805F091690551968D919C910995A3
:1010B00080917305909174058C0F9D1F0E94C20151
:1010C000FFEFCF1ADF0A639696CFA114B10409F49B
:1010D00031CF0E94FD00882309F42CCF0E9400002C
:1010E00029CF0E9478086894B1110C9407090895DB
:1010F0000E94EC0888F09F5798F0B92F9927B751B4
:10110000B0F0E1F0660F771F881F991F1AF0BA95AB
:10111000C9F714C0B13091F00E940609B1E00895FA
:101120000C940609672F782F8827B85F39F0B93FEC
:10113000CCF3869577956795B395D9F73EF490955E
:101140008095709561957F4F8F4F9F4F0895E894DC
:1011500009C097FB3EF490958095709561957F4FFF
:101160008F4F9F4F9923A9F0F92F96E9BB279395AD
:10117000F695879577956795B795F111F8CFFAF4BD
:10118000BB0F11F460FF1BC06F5F7F4F8F4F9F4FEE
:1011900016C0882311F096E911C0772321F09EE84C
:1011A000872F762F05C0662371F096E8862F70E0B2
:1011B00060E02AF09A95660F771F881FDAF7880F8C
:1011C0009695879597F9089557FD9058440F551FA8
:1011D00059F05F3F71F04795880F97FB991F61F0B9
:1011E0009F3F79F087950895121613061406551F30
:1011F000F2CF4695F1DF08C0161617061806991F9C
:10120000F1CF86957105610508940895E894BB2790
:1012100066277727CB0197F908950E9420090C943F
:1012200091090E94830938F00E948A0920F09523D1
:1012300011F00C947A090C94800911240C9407097C
:101240000E94E40870F3959FC1F3950F50E0551F7D
:10125000629FF001729FBB27F00DB11D639FAA270B
:10126000F00DB11DAA1F649F6627B00DA11D661F5A
:10127000829F2227B00DA11D621F739FB00DA11D7B
:10128000621F839FA00D611D221F749F3327A00D35
:10129000611D231F849F600D211D822F762F6A2FD1
:1012A00011249F5750409AF0F1F088234AF0EE0F36
:1012B000FF1FBB1F661F771F881F91505040A9F763
:1012C0009E3F510580F00C947A090C9407095F3F0A
:1012D000E4F3983ED4F3869577956795B795F7959F
:1012E000E7959F5FC1F7FE2B880F911D9695879517
:1012F00097F9089597F99F6780E870E060E0089596
:101300009FEF80EC089500240A941616170618061D
:101310000906089500240A941216130614060506F9
:101320000895092E0394000C11F4882352F0BB0F8A
:1013300040F4BF2B11F460FF04C06F5F7F4F8F4FED
:101340009F4F0895A1E21A2EAA1BBB1BFD010DC0E1
:10135000AA1FBB1FEE1FFF1FA217B307E407F50765
:1013600020F0A21BB30BE40BF50B661F771F881F41
:10137000991F1A9469F760957095809590959B01D7
:10138000AC01BD01CF010895EE0FFF1F0590F49150
:10139000E02D0994F894FFCF30020100000088137B
:1013A000016B03010000AE0401000000881300B2CD
:1013B000040000000000000033019300C000800121
:1013C000F100CF00E30046616B65556269203A0089
:1013D0006D696C6C697328293A20005469656D70D9
:1013E0006F207472616E736375727269646F203AF4
:1013F000006465736465206C61206F706572616361
:10140000696F6E203A000D0A007375736273637220
:10141000696265416C6C566172732829005375735B
:101420006372696269656E646F206C6120766172B7
:101430006961626C65202700272064656C206469FF
:1014400073706F73697469766F202700272E2E2EB4
:10145000005375736372697063696F6E2065786994
:10146000746F73610063616C6C6261636B28290047
:101470004D656E73616A6520646520556269646FAD
:101480007473205B005D20004465736162696C6960
:1014900074616E646F207075626C69636163696FFB
:1014A0006E2064656C20626F746F6E0048616269C3
:1014B0006C6974616E646F207075626C69636163DE
:1014C000696F6E2064656C20626F746F6E00756268
:1014D00069436F6D6D69742829005469656D706F7B
:1014E000207472616E736375727269646F206465D3
:1014F000736465206C6120756C74696D6120707512
:10150000626C69636163696F6E203A2000457363A2
:1015100072696269656E646F204A534F4E2E205681
:1015200061726961626C652000203D200045736333
:1015300072697475726120657869746F73612E00C9
:10154000756269436865636B282900536520656E81
:10155000636F6E747261726F6E20636F6D6D69740C
:10156000732070617261207075626C6963617200D2
:101570005075626C6963616E646F200020766172E1
:101580006961626C65732064656C20646973706F57
:1015900073697469766F2000756269507573682885
:1015A00029005075626C6963616E646F204A534F05
:1015B0004E2E2E2E0046616B655562693E00707599
:1015C000626C697368282900526573706F6E646974
:1015D000656E646F207075626C69636163696F6EBC
:1015E000206465203A004A534F4E205075626C6962
:1015F0006361646F20657869746F73616D656E7483
:10160000652E0070726573696F6E61646F003100E2
:1016100030007562695365747570282900436F6ED8
:10162000656374616E646F736520616C20576946F1
:10163000692E2E2E00436F6E65637461646F2061A6
:10164000206C61207265642057694669206578695D
:10165000746F73616D656E74652E00436F6E66699D
:10166000677572616E646F2042726F6B65722E2EA9
:101670002E00436F6E66696775726163696F6E20D5
:10168000657869746F73612E004552524F523A204B
:10169000756269537562736372696265004C696D46
:1016A000697465206465207375736372697063691A
:1016B0006F6E657320616C63616E7A61646F2E007A
:1016C00050756564652061756D656E7461726C6FCF
:1016D00020656E20556269646F74732E682E0063F6
:1016E0006F6E6E6563746564282900646573636F4B
:1016F0006E656363696F6E00756269436F6E6E65D8
:1017000063742829005265636F6E656374616E644B
:101710006F206120556269646F74732E2E2E004312
:101720006F6E65637461646F20657869746F73614F
:101730006D656E7465006C6F6F7028290063616C55
:101740006C6261636B006C647200696E74656E73C9
:0617500069646164000001
:107E0000112484B714BE81FFF0D085E080938100F7
:107E100082E08093C00088E18093C10086E0809377
:107E2000C20080E18093C4008EE0C9D0259A86E02C
:107E300020E33CEF91E0309385002093840096BBD3
:107E4000B09BFECF1D9AA8958150A9F7CC24DD24C4
:107E500088248394B5E0AB2EA1E19A2EF3E0BF2EE7
:107E6000A2D0813461F49FD0082FAFD0023811F036
:107E7000013811F484E001C083E08DD089C08234E0
:107E800011F484E103C0853419F485E0A6D080C0E4
:107E9000853579F488D0E82EFF2485D0082F10E0AE
:107EA000102F00270E291F29000F111F8ED06801E7
:107EB0006FC0863521F484E090D080E0DECF843638
:107EC00009F040C070D06FD0082F6DD080E0C81688
:107ED00080E7D80618F4F601B7BEE895C0E0D1E017
:107EE00062D089930C17E1F7F0E0CF16F0E7DF06D8
:107EF00018F0F601B7BEE89568D007B600FCFDCFD4
:107F0000A601A0E0B1E02C9130E011968C91119780
:107F100090E0982F8827822B932B1296FA010C0160
:107F200087BEE89511244E5F5F4FF1E0A038BF0790
:107F300051F7F601A7BEE89507B600FCFDCF97BE46
:107F4000E89526C08437B1F42ED02DD0F82E2BD052
:107F50003CD0F601EF2C8F010F5F1F4F84911BD097
:107F6000EA94F801C1F70894C11CD11CFA94CF0C13
:107F7000D11C0EC0853739F428D08EE10CD085E9AC
:107F80000AD08FE07ACF813511F488E018D01DD067
:107F900080E101D065CF982F8091C00085FFFCCF94
:107FA0009093C60008958091C00087FFFCCF809118
:107FB000C00084FD01C0A8958091C6000895E0E648
:107FC000F0E098E1908380830895EDDF803219F02E
:107FD00088E0F5DFFFCF84E1DECF1F93182FE3DFCA
:107FE0001150E9F7F2DF1F91089580E0E8DFEE27F6
:047FF000FF270994CA
:027FFE00040479
:00000001FF
